{
  "contractName": "Adoption",
  "abi": [
    {
      "constant": true,
      "inputs": [
        {
          "internalType": "uint256",
          "name": "",
          "type": "uint256"
        }
      ],
      "name": "adopters",
      "outputs": [
        {
          "internalType": "address",
          "name": "",
          "type": "address"
        }
      ],
      "payable": false,
      "stateMutability": "view",
      "type": "function"
    },
    {
      "constant": false,
      "inputs": [
        {
          "internalType": "uint256",
          "name": "petId",
          "type": "uint256"
        }
      ],
      "name": "adopt",
      "outputs": [
        {
          "internalType": "uint256",
          "name": "",
          "type": "uint256"
        }
      ],
      "payable": false,
      "stateMutability": "nonpayable",
      "type": "function"
    },
    {
      "constant": true,
      "inputs": [],
      "name": "getAdopters",
      "outputs": [
        {
          "internalType": "address[16]",
          "name": "",
          "type": "address[16]"
        }
      ],
      "payable": false,
      "stateMutability": "view",
      "type": "function"
    },
    {
      "constant": true,
      "inputs": [
        {
          "internalType": "address",
          "name": "adopterAddress",
          "type": "address"
        }
      ],
      "name": "getAdoptedPetsByAddress",
      "outputs": [
        {
          "internalType": "uint256[]",
          "name": "",
          "type": "uint256[]"
        }
      ],
      "payable": false,
      "stateMutability": "view",
      "type": "function"
    }
  ],
  "bytecode": "0x608060405234801561001057600080fd5b506104c0806100206000396000f3fe608060405234801561001057600080fd5b506004361061004c5760003560e01c80633de4eb171461005157806343ae80d3146100975780638588b2c514610105578063af1aac9f14610147575b600080fd5b6100596101e0565b6040518082601060200280838360005b83811015610084578082015181840152602081019050610069565b5050505090500191505060405180910390f35b6100c3600480360360208110156100ad57600080fd5b8101908080359060200190929190505050610261565b604051808273ffffffffffffffffffffffffffffffffffffffff1673ffffffffffffffffffffffffffffffffffffffff16815260200191505060405180910390f35b6101316004803603602081101561011b57600080fd5b8101908080359060200190929190505050610294565b6040518082815260200191505060405180910390f35b6101896004803603602081101561015d57600080fd5b81019080803573ffffffffffffffffffffffffffffffffffffffff169060200190929190505050610305565b6040518080602001828103825283818151815260200191508051906020019060200280838360005b838110156101cc5780820151818401526020810190506101b1565b505050509050019250505060405180910390f35b6101e8610468565b6000601080602002604051908101604052809291908260108015610257576020028201915b8160009054906101000a900473ffffffffffffffffffffffffffffffffffffffff1673ffffffffffffffffffffffffffffffffffffffff168152602001906001019080831161020d575b5050505050905090565b6000816010811061026e57fe5b016000915054906101000a900473ffffffffffffffffffffffffffffffffffffffff1681565b60008082101580156102a75750600f8211155b6102b057600080fd5b33600083601081106102be57fe5b0160006101000a81548173ffffffffffffffffffffffffffffffffffffffff021916908373ffffffffffffffffffffffffffffffffffffffff160217905550819050919050565b60608060106040519080825280602002602001820160405280156103385781602001602082028038833980820191505090505b509050600080905060008090505b60108110156103e0578473ffffffffffffffffffffffffffffffffffffffff166000826010811061037357fe5b0160009054906101000a900473ffffffffffffffffffffffffffffffffffffffff1673ffffffffffffffffffffffffffffffffffffffff1614156103d357808383815181106103be57fe5b60200260200101818152505081806001019250505b8080600101915050610346565b506060816040519080825280602002602001820160405280156104125781602001602082028038833980820191505090505b50905060008090505b8281101561045c5783818151811061042f57fe5b602002602001015182828151811061044357fe5b602002602001018181525050808060010191505061041b565b50809350505050919050565b60405180610200016040528060109060208202803883398082019150509050509056fea265627a7a723158207154cfbcaccb4167e8604ee8bc6ae21709c5bc002ac9fb8d4977d3c92aa38e2464736f6c63430005100032",
  "source": "// SPDX-License-Identifier: MIT\r\npragma solidity >=0.4.22 <0.8.0;\r\n\r\ncontract Adoption {\r\n\r\n    address[16] public adopters;\r\n\r\n// Adopting a pet\r\nfunction adopt(uint petId) public returns (uint) {\r\n  require(petId >= 0 && petId <= 15);\r\n\r\n  adopters[petId] = msg.sender;\r\n\r\n  return petId;\r\n}\r\n\r\n    function getAdopters() public view returns (address[16] memory) {\r\n        return adopters;\r\n    }\r\n\r\nfunction getAdoptedPetsByAddress(address adopterAddress) public view returns (uint[] memory) {\r\n    uint[] memory adoptedPetIds = new uint[](16);\r\n    uint count = 0;\r\n\r\n    for (uint i = 0; i < adopters.length; i++) {\r\n        if (adopters[i] == adopterAddress) {\r\n            adoptedPetIds[count] = i;\r\n            count++;\r\n        }\r\n    }\r\n\r\n    uint[] memory result = new uint[](count);\r\n    for (uint j = 0; j < count; j++) {\r\n        result[j] = adoptedPetIds[j];\r\n    }\r\n\r\n    return result;\r\n}\r\n}",
  "sourcePath": "C:\\Users\\azit_\\Documents\\proyectpetshop\\contracts\\Adoption.sol",
  "compiler": {
    "name": "solc",
    "version": "0.5.16+commit.9c3226ce.Emscripten.clang"
  },
  "schemaVersion": "3.4.14",
  "updatedAt": "2023-06-10T07:29:57.144Z",
  "devdoc": {
    "methods": {}
  },
  "userdoc": {
    "methods": {}
  }
}